:100000000C9434000C9446000C9446000C9446006A
:100010000C9446000C9446000C9446000C94460048
:100020000C9446000C9446000C9446000C946D0110
:100030000C9446000C9446000C9446000C94460028
:100040000C9446000C9446000C9446000C94460018
:100050000C9446000C9446000C9446000C94460008
:100060000C9446000C94460011241FBECFEFD8E03C
:10007000DEBFCDBF21E0A0E0B1E001C01D92A531FF
:10008000B207E1F70E94D2010C944D020C940000DB
:1000900084B1826084B984B1816084B98AB1806896
:1000A0008AB98AB180648AB98AB180628AB98AB110
:1000B00080618AB98AB188608AB98BB180628BB954
:1000C0008BB180618BB9E1E8F0E080818F7E808325
:1000D000808188608083E0E8F0E080818D7F80838C
:1000E00080818E7F808380818F7780838081806410
:1000F0008083EFE6F0E08081826080830895E1E80C
:10010000F0E080818B7F808380818260808380812A
:100110008E7F8083089540910F0150911001849F3C
:100120009001859F300D949F300D1124A9E8B8E807
:100130000E941C0296958795929582958F708927CB
:100140009F70892790930101809300019C0140E0FA
:1001500050E060E472E48FE090E00E94FD01C9018C
:10016000019790930A01809309010895823061F10B
:1001700028F4882349F08130B9F008958330A1F143
:10018000843009F441C0089585B18E7F85B98BB163
:100190008F778BB98BB18F7B8BB988EC90E0909384
:1001A000100180930F01089585B1816085B98BB1ED
:1001B0008F778BB98BB18F7B8BB980E991E090936E
:1001C000100180930F01089585B18E7F85B98BB1A1
:1001D00080688BB98BB18F7B8BB980E293E0909371
:1001E000100180930F01089585B1816085B98BB1AD
:1001F00080688BB98BB18F7B8BB980E496E090934C
:10020000100180930F01089585B1816085B98BB18C
:1002100080688BB98BB180648BB980E89CE0909347
:10022000100180930F0108958BB1877F8BB90895DA
:10023000EF92FF920F931F93CF93DF937C01EB011B
:100240008A010E947F00CE010E948B0090931201D0
:1002500080931101C7010E948B00FC01909305015E
:100260008093040180910F0190911001C89F90012B
:10027000C99F300DD89F300D1124A9E8B8E80E941D
:100280001C029C0136952795329522952F702327C5
:100290003F7023278091110190911201AF01481BFB
:1002A000590BCA01209FB001219F700D309F700D26
:1002B00011240E94E9017093030160930201F093FD
:1002C0008900E093880081E080930601DF91CF915F
:1002D0001F910F91FF90EF9008951F920F920FB60C
:1002E0000F9211242F933F934F935F938F939F937C
:1002F00080910601813029F58091040190910501DA
:1003000020911101309112012817390788F440918A
:10031000020150910301841B950B9093050180937A
:1003200004018217930720F4309305012093040100
:100330008091040190910501909389008093880039
:1003400026C0823021F5409107015091080180912B
:100350001301909114014817590788F420910D0159
:1003600030910E01240F351F3093080120930701AF
:100370008217930720F490930801809307018091DE
:1003800007019091080190938900809388009F91C4
:100390008F915F914F913F912F910F900FBE0F90D2
:1003A0001F9018950E944800789481E090E0009793
:1003B000F1F30E94140180E00E94B60045E050E095
:1003C00064E170E08AE090E00E94180180E090E033
:1003D000EECFAA1BBB1B51E107C0AA1FBB1FA6176C
:1003E000B70710F0A61BB70B881F991F5A95A9F7DE
:1003F00080959095BC01CD010895052E97FB1EF4C4
:1004000000940E94140257FD07D00E942B0207FCA3
:1004100003D04EF40C9414025095409530952195DC
:100420003F4F4F4F5F4F0895909580957095619520
:100430007F4F8F4F9F4F0895A29FB001B39FC00180
:10044000A39F700D811D1124911DB29F700D811D00
:100450001124911D0895A1E21A2EAA1BBB1BFD01B8
:100460000DC0AA1FBB1FEE1FFF1FA217B307E40793
:10047000F50720F0A21BB30BE40BF50B661F771FEB
:10048000881F991F1A9469F76095709580959095CB
:0E0490009B01AC01BD01CF010895F894FFCF90
:00000001FF
