:100000000C9434000C9451000C9451000C94510049
:100010000C9451000C9451000C9451000C9451001C
:100020000C9451000C9451000C9451000C944B0111
:100030000C9451000C9451000C9451000C945100FC
:100040000C9451000C9451000C9451000C945100EC
:100050000C9451000C9451000C9451000C945100DC
:100060000C9451000C94510011241FBECFEFD8E026
:10007000DEBFCDBF11E0A0E0B1E0EAEEF3E002C0E8
:1000800005900D92A630B107D9F721E0A6E0B1E0C6
:1000900001C01D92A231B207E1F70E9453000C94F7
:1000A000F3010C94000084B1826084B984B1816052
:1000B00084B98AB180688AB98AB180648AB98AB100
:1000C00080628AB98AB180618AB98AB188608AB946
:1000D0008AB181608AB985B18E7F85B98BB18F77FE
:1000E0008BB98BB18F7B8BB98BB180628BB98BB1A4
:1000F00080618BB98BB188608BB9E1E8F0E08081D9
:100100008F7E8083808188608083A0E8B0E08C91BE
:100110008D7F8C938C918E7F8C9380818B7F80835D
:1001200080818260808380818E7F80838C918F77B5
:100130008C938C9180648C93EFE6F0E080818260F8
:1001400080832091000130910101A9E8B8E80E9464
:10015000C20196958795929582958F7089279F7099
:10016000892790930F0180930E0180910201909155
:10017000030148EC489F9001499F300D11240E94D3
:10018000C20196958795929582958F7089279F7069
:10019000892790930D0180930C0180910401909127
:1001A0000501489F9001499F300D11240E94C20112
:1001B00096958795929582958F7089279F7089274C
:1001C000909307018093060120910C0130910D015D
:1001D000032E000C440B550B0F2EF0E4CF2EF2E44F
:1001E000DF2EFFE0EF2EF12CF02DC701B6010E94AB
:1001F000A3012150310930930B0120930A01209172
:10020000060130910701032E000C440B550BC7016A
:10021000B6010E94A30121503109309309012093B6
:10022000080120910A0130910B0180910801909101
:100230000901281B390B4091040150910501249FAD
:10024000C001259F900D349F900D11242091040131
:10025000309105014091020150910301241B350B9F
:1002600040910E0150910F01249FB001259F700D08
:10027000349F700D11240E948F01709311016093BF
:10028000100180910A0190910B0190938900809355
:1002900088007894FFCF1F920F920FB60F9211240F
:1002A0002F933F938F939F9320910A0130910B01DD
:1002B000809108019091090182179307F8F48091C9
:1002C0000A0190910B018D9790930B0180930A0185
:1002D00020910A0130910B01809108019091090150
:1002E0002817390758F480910801909109019093DB
:1002F0000B0180930A018BB181608BB980910A0157
:1003000090910B0190938900809388009F918F9129
:100310003F912F910F900FBE0F901F901895AA1B21
:10032000BB1B51E107C0AA1FBB1FA617B70710F0E0
:10033000A61BB70B881F991F5A95A9F78095909512
:10034000BC01CD010895052E97FB1EF400940E9478
:10035000BA0157FD07D00E94D10107FC03D04EF42B
:100360000C94BA0150954095309521953F4F4F4FD1
:100370005F4F089590958095709561957F4F8F4F51
:100380009F4F0895A29FB001B39FC001A39F700D1E
:10039000811D1124911DB29F700D811D1124911D8D
:1003A0000895A1E21A2EAA1BBB1BFD010DC0AA1FB6
:1003B000BB1FEE1FFF1FA217B307E407F50720F0CE
:1003C000A21BB30BE40BF50B661F771F881F991F49
:1003D0001A9469F760957095809590959B01AC0192
:0A03E000BD01CF010895F894FFCF8E
:0603EA0005000A001400EA
:00000001FF
