:100000000C9434000C9446000C9446000C9446006A
:100010000C9446000C9446000C9446000C94460048
:100020000C9446000C9446000C9446000C94F80086
:100030000C9446000C9446000C9446000C94460028
:100040000C9446000C9446000C9446000C94460018
:100050000C9446000C9446000C9446000C94460008
:100060000C9446000C94460011241FBECFEFD8E03C
:10007000DEBFCDBF21E0A0E0B1E001C01D92A830FD
:10008000B207E1F70E94EE010C9451020C940000BB
:1000900084B1826084B984B1816084B98AB1806896
:1000A0008AB98AB180648AB98AB180628AB98AB110
:1000B00080618AB98AB188608AB98BB180628BB954
:1000C0008BB180618BB9E1E8F0E080818061808351
:1000D000808188608083E0E8F0E0808182608083B6
:1000E00080818E7F808380818068808380818F7B08
:1000F0008083EFE6F0E0808182608083089588232A
:1001000019F0813029F008958BB1877F8BB908955C
:100110008BB188608BB908958230F9F028F4882378
:1001200041F0813081F00895833009F1843049F144
:10013000089585B18E7F85B98BB18F778BB98BB1DF
:100140008F7B8BB9089585B1816085B98BB18F772D
:100150008BB98BB18F7B8BB9089585B18E7F85B9B3
:100160008BB180688BB98BB18F7B8BB9089585B1CA
:10017000816085B98BB180688BB98BB18F7B8BB96E
:10018000089585B1816085B98BB180688BB98BB1D9
:1001900080648BB90895EF92FF920F931F93CF93D2
:1001A000DF93162F7A01E901E1E8F0E09081946095
:1001B000908390819D7F90839081916090830E9435
:1001C0008C00812F0E947F00F0920301E0920201D7
:1001D000D0930501C09304010093010182E0809354
:1001E0000001DF91CF911F910F91FF90EF90089543
:1001F0001F920F920FB60F921124CF92DF92EF92BF
:10020000FF922F933F934F935F936F937F938F93BF
:100210009F93AF93BF93CF93DF93EF93FF9380911F
:100220000001813051F5209106013091070140E035
:1002300050E069E07DE380E090E00E9401022150FF
:100240003109E6E8F0E0318320838081918140919B
:100250000101489F9001499F300D11243695279543
:1002600036952795ABE7B4E10E94200296958795D5
:1002700090938900809388009AC0823009F04AC028
:10028000209102013091030140E050E00F2EF9E08F
:10029000CF2EFDE3DF2EE12CF12CF02DC701B601AE
:1002A0000E940102E901219720910401309105018A
:1002B00040E050E0C701B6010E940102A90141508F
:1002C00051094C175D07E8F7E6E8F0E0D183C083F9
:1002D0008081918160910101689F9001699F300D3B
:1002E00011243695279536952795ABE7B4E10E9402
:1002F0002002969587959093890080938800219796
:100300002FEF8BE49DE1215080409040E1F700C049
:100310000000D7CF833009F04AC02091020130910C
:10032000030140E050E00F2EF9E0CF2EFDE3DF2E79
:10033000E12CF12CF02DC701B6010E940102E90168
:100340002197209104013091050140E050E0C70160
:10035000B6010E940102A90141505109C417D507F5
:10036000E8F7E6E8F0E0D183C08380819181609175
:100370000101689F9001699F300D112436952795E2
:1003800036952795ABE7B4E10E94200296958795B4
:10039000909389008093880021962FEF8BE49DE154
:1003A000215080409040E1F700C00000D7CFFF917E
:1003B000EF91DF91CF91BF91AF919F918F917F91FD
:1003C0006F915F914F913F912F91FF90EF90DF9050
:1003D000CF900F900FBE0F901F9018950E9448006D
:1003E00078948FE39CE90197F1F700C0000002E3E5
:1003F00020E233E044E150E060E080E00E94CB0086
:10040000F0CF052E97FB1EF400940E94180257FDB2
:1004100007D00E942F0207FC03D04EF40C94180260
:1004200050954095309521953F4F4F4F5F4F089520
:1004300090958095709561957F4F8F4F9F4F089550
:10044000A29FB001B39FC001A39F700D811D112415
:10045000911DB29F700D811D1124911D0895A1E27F
:100460001A2EAA1BBB1BFD010DC0AA1FBB1FEE1F2E
:10047000FF1FA217B307E407F50720F0A21BB30B79
:10048000E40BF50B661F771F881F991F1A9469F7F5
:1004900060957095809590959B01AC01BD01CF0151
:0604A0000895F894FFCF5F
:00000001FF
