:100000000C9434000C9451000C9451000C94510049
:100010000C9451000C9451000C9451000C9451001C
:100020000C9451000C9451000C9451000C9451000C
:100030000C9451000C9451000C9451000C945100FC
:100040000C9451000C9451000C9451000C945100EC
:100050000C9451000C9451000C9451000C945100DC
:100060000C9451000C94510011241FBECFEFD8E026
:10007000DEBFCDBF11E0A0E0B1E0EAE3F7E002C0EF
:1000800005900D92A430B107D9F721E0A4E0B1E0CA
:1000900001C01D92A231B207E1F70E94E6000C9464
:1000A0009B030C9400009C0140E050E060E472E48B
:1000B0008FE090E00E941A03215031093093C5006F
:1000C0002093C40088E18093C10086E08093C20041
:1000D00008959091C00095FFFCCF8093C6000895CD
:1000E000CF93DF93EC0103C021960E9469008881C1
:1000F0008111FACFDF91CF910895ECE7F0E0808194
:100100008F77808380818064808380818F7D8083EE
:10011000EAE7F0E080818160808380818260808373
:1001200080818460808380818068808308958F705F
:10013000ECE7F0E09081907F892B8083EAE7F0E0A4
:1001400080818064808380917A0086FDFCCF8091DD
:10015000780090917900089580E00E949700BC019A
:1001600080E090E00E941F0220E030E044EB53E486
:100170000E94AD0220E030EC4FE754E40E9477018A
:100180000E94F001CB0108950E94AC00BC01809157
:100190000401909105010097B1F0681B790B9B0158
:1001A0007AF4072E000C880B990B0E94210220E0A4
:1001B00030E044EB53E40E940B010E94E9019B01F3
:1001C000822F932F0895862F972F089580E895E228
:1001D0000E9453000E947D000E94C400909307017A
:1001E000809306014AE050E068E071E00E945B0302
:1001F00088E091E00E94700080E091E00E94700031
:100200002FEF83ED90E3215080409040E1F700C054
:100210000000E2CF5058BB27AA270E9422010C946D
:1002200073020E94650238F00E946C0220F039F4DB
:100230009F3F19F426F40C9462020EF4E095E7FB5C
:100240000C945C02E92F0E94840258F3BA176207EB
:1002500073078407950720F079F4A6F50C94A6029D
:100260000EF4E0950B2EBA2FA02D0B01B9019001D1
:100270000C01CA01A0011124FF27591B99F0593F15
:1002800050F4503E68F11A16F040A22F232F342F5D
:100290004427585FF3CF469537952795A795F040AB
:1002A0005395C9F77EF41F16BA0B620B730B840BC0
:1002B000BAF09150A1F0FF0FBB1F661F771F881F78
:1002C000C2F70EC0BA0F621F731F841F48F48795D0
:1002D00077956795B795F7959E3F08F0B0CF9395C2
:1002E000880F08F09927EE0F9795879508950E943B
:1002F0008B010C9473020E946C0258F00E946502FC
:1003000040F029F45F3F29F00C945C0251110C94E9
:10031000A7020C9462020E94840268F39923B1F34D
:10032000552391F3951B550BBB27AA27621773071B
:10033000840738F09F5F5F4F220F331F441FAA1FAF
:10034000A9F335D00E2E3AF0E0E832D0915050406B
:10035000E695001CCAF72BD0FE2F29D0660F771F19
:10036000881FBB1F261737074807AB07B0E809F0FF
:10037000BB0B802DBF01FF2793585F4F3AF09E3F84
:10038000510578F00C945C020C94A7025F3FE4F3F3
:10039000983ED4F3869577956795B795F7959F5FC7
:1003A000C9F7880F911D9695879597F90895E1E013
:1003B000660F771F881FBB1F621773078407BA0772
:1003C00020F0621B730B840BBA0BEE1F88F7E095CD
:1003D00008950E94F0016894B1110C94A702089549
:1003E0000E948C0288F09F5798F0B92F9927B75137
:1003F000B0F0E1F0660F771F881F991F1AF0BA95C9
:10040000C9F714C0B13091F00E94A602B1E008957E
:100410000C94A602672F782F8827B85F39F0B93F70
:10042000CCF3869577956795B395D9F73EF490957B
:100430008095709561957F4F8F4F9F4F0895E894F9
:1004400009C097FB3EF490958095709561957F4F1C
:100450008F4F9F4F9923A9F0F92F96E9BB279395CA
:10046000F695879577956795B795F111F8CFFAF4DA
:10047000BB0F11F460FF1BC06F5F7F4F8F4F9F4F0B
:1004800016C0882311F096E911C0772321F09EE869
:10049000872F762F05C0662371F096E8862F70E0CF
:1004A00060E02AF09A95660F771F881FDAF7880FA9
:1004B0009695879597F9089597F99F6780E870E07A
:1004C00060E008959FEF80EC089500240A941616CA
:1004D000170618060906089500240A941216130632
:1004E000140605060895092E0394000C11F48823C0
:1004F00052F0BB0F40F4BF2B11F460FF04C06F5FDC
:100500007F4F8F4F9F4F089557FD9058440F551FB1
:1005100059F05F3F71F04795880F97FB991F61F085
:100520009F3F79F087950895121613061406551FFC
:10053000F2CF4695F1DF08C0161617061806991F68
:10054000F1CF86957105610508940895E894BB275D
:1005500066277727CB0197F908950E94C0020C9473
:1005600073020E94650238F00E946C0220F095230D
:1005700011F00C945C020C94620211240C94A702FA
:100580000E94840270F3959FC1F3950F50E0551FB0
:10059000629FF001729FBB27F00DB11D639FAA27D8
:1005A000F00DB11DAA1F649F6627B00DA11D661F27
:1005B000829F2227B00DA11D621F739FB00DA11D48
:1005C000621F839FA00D611D221F749F3327A00D02
:1005D000611D231F849F600D211D822F762F6A2F9E
:1005E00011249F5750409AF0F1F088234AF0EE0F03
:1005F000FF1FBB1F661F771F881F91505040A9F730
:100600009E3F510580F00C945C020C94A7025F3F62
:10061000E4F3983ED4F3869577956795B795F7956B
:10062000E7959F5FC1F7FE2B880F911D96958795E3
:1006300097F90895052E97FB1EF400940E9431034C
:1006400057FD07D00E94390307FC03D04EF40C94E9
:10065000310350954095309521953F4F4F4F5F4F57
:10066000089590958095709561957F4F8F4F9F4F1E
:100670000895A1E21A2EAA1BBB1BFD010DC0AA1FE3
:10068000BB1FEE1FFF1FA217B307E407F50720F0FB
:10069000A21BB30BE40BF50B661F771F881F991F76
:1006A0001A9469F760957095809590959B01AC01BF
:1006B000BD01CF0108954532510520F4423010F0BC
:1006C0000C946603FB011082CB010895BB274A30CE
:1006D00031F4992322F4BDE2909581959F4F0C94BB
:1006E0007203BB27FB015527AA27880F991FAA1F52
:1006F000A41710F0A41B83955051B9F7A05DAA333D
:1007000008F0A95DA193009779F7B111B193119207
:10071000CB010C948B03DC01FC01672F71917723D3
:10072000E1F7329704C07C916D9370836291AE17AC
:0A073000BF07C8F30895F894FFCF47
:04073A000D0A0000A4
:00000001FF
