S00F0000436C69656E74652E7372656351
S11300000C9434000C9446000C9446000C94460066
S11300100C9446000C9446000C9446000C94460044
S11300200C9446000C9446000C9446000C94AD01CC
S11300300C9446000C9446000C9446000C94460024
S11300400C9446000C9446000C9446000C94460014
S11300500C9446000C9446000C9446000C94460004
S11300600C9446000C94460011241FBECFEFD8E038
S1130070DEBFCDBF21E0A0E0B1E001C01D92A131FF
S1130080B207E1F70E942C020C94A7020C94000022
S113009084B1826084B984B1816084B98AB1806892
S11300A08AB98AB180648AB98AB180628AB98AB10C
S11300B080618AB98AB188608AB98BB180628BB950
S11300C08BB180618BB9E1E8F0E080818F7E808321
S11300D0808188608083E0E8F0E080818D7F808388
S11300E080818E7F808380818F778083808180640C
S11300F08083EFE6F0E080818260808310920801C3
S1130100109207010895E1E8F0E080818B7F8083FD
S113011080818260808380818E7F80830895409176
S1130120000150910101849F9001859F300D949F9F
S1130130300D1124A9E8B8E80E94760296958795B7
S1130140929582958F7089279F70892790930301D8
S1130150809302019C0140E050E060E472E48FE08F
S113016090E00E945702C901019790930A0180937D
S113017009010895823061F128F4882349F081301F
S1130180B9F008958330A1F1843009F441C0089591
S113019085B18E7F85B98BB18F778BB98BB18F7B0E
S11301A08BB988EC90E0909301018093000108954D
S11301B085B1816085B98BB18F778BB98BB18F7B1A
S11301C08BB980E991E09093010180930001089537
S11301D085B18E7F85B98BB180688BB98BB18F7BEC
S11301E08BB980E293E0909301018093000108951C
S11301F085B1816085B98BB180688BB98BB18F7BF8
S11302008BB980E496E090930101809300010895F6
S113021085B1816085B98BB180688BB98BB18064FD
S11302208BB980E89CE090930101809300010895CC
S11302308BB1877F8BB908950F931F93CF93DF936F
S1130240EC018B010E948300CE010E948F009093E9
S1130250100180930F0180910701909108010E9481
S11302608F00FC01909306018093050180910701A2
S1130270909108018C179D07A8F580910001909139
S11302800101C89F9001C99F300DD89F300D1124E2
S1130290A9E8B8E80E9476029C0136952795329524
S11302A022952F7023273F70232780910F0190916F
S11302B01001AF01481B590BCA01209FB001219FB7
S11302C0700D309F700D11240E94430270930C0135
S11302D060930B01F0938900E093880081E08093A0
S11302E0040132C04091000150910101849F9001AA
S11302F0859F300D949F300D1124A9E8B8E80E9421
S113030076029C0136952795329522952F702327E6
S11303103F70232780910F01909110018E1B9F0B3A
S1130320029FB001039F700D129F700D11240E9453
S1130330430270930C0160930B01F0938900E093E6
S1130340880082E080930401D0930801C0930701E0
S1130350DF91CF911F910F9108951F920F920FB6C5
S11303600F9211242F933F934F935F938F939F93F7
S113037080910401813029F5809105019091060155
S113038020910F01309110012817390788F440910A
S11303900B0150910C01841B950B909306018093E3
S11303A005018217930720F4309306012093050179
S11303B080910501909106019093890080938800B3
S11303C026C0823021F540910501509106018091AB
S11303D00F01909110014817590788F420910B01DF
S11303E030910C01240F351F309306012093050131
S11303F08217930720F4909306018093050180915E
S113040005019091060190938900809388009F9143
S11304108F915F914F913F912F910F900FBE0F904D
S11304201F901895ECE7F0E080818F7780838081BE
S11304308064808380818F7D8083EAE7F0E080811F
S113044081608083808182608083808184608083F6
S113045080818068808308950E9448000E9412026F
S1130460789481E090E00097F1F30E94180180E015
S11304700E94BA006AE070E084E690E00E941C01E9
S113048080E090E0F0CFAA1BBB1B51E107C0AA1F7C
S1130490BB1FA617B70710F0A61BB70B881F991F21
S11304A05A95A9F780959095BC01CD010895052E24
S11304B097FB1EF400940E946E0257FD07D00E9421
S11304C0850207FC03D04EF40C946E0250954095BF
S11304D0309521953F4F4F4F5F4F089590958095EC
S11304E0709561957F4F8F4F9F4F0895A29FB001E4
S11304F0B39FC001A39F700D811D1124911DB29F54
S1130500700D811D1124911D0895A1E21A2EAA1BBC
S1130510BB1BFD010DC0AA1FBB1FEE1FFF1FA217AF
S1130520B307E407F50720F0A21BB30BE40BF50BAC
S1130530661F771F881F991F1A9469F76095709535
S1130540809590959B01AC01BD01CF010895F8946D
S1050550FFCFD7
S9030000FC
