S00D0000536C6176652E737265631C
S11300000C943A000C9457000C9457000C9457002D
S11300100C9457000C9457000C9457000C94570000
S11300200C9457000C9457000C9457000C945700F0
S11300300C9457000C9457000C9457000C945700E0
S11300400C9457000C9469000C9457000C945700BE
S11300500C9457000C9457000C9457000C945700C0
S11300600C9457000C9457006364696E6F70737539
S113007078585B0011241FBECFEFD8E0DEBFCDBFA0
S113008011E0A0E0B1E0E4EFF8E002C005900D92C9
S1130090A632B107D9F721E0A6E2B1E001C01D9272
S11300A0A835B207E1F70E94C8000C9478040C94B8
S11300B0000084B1877F84B984B1806184B984B13C
S11300C08F7D84B984B18B7F84B980EC8CBD7894A6
S11300D008951F920F920FB60F9211242F933F93FE
S11300E08F939F93AF93BF93EF93FF9380910001FE
S11300F08823A1F08EB580932A0190912801911153
S113010005C0803118F48093280103C09111109226
S113011000018F5F809329018EBD2DC08EB5809321
S11301202A01282F30E02B37310561F491E09093B8
S113013026011092270199E2EDE2F1E0DF011D9220
S11301409A95E9F72D37310529F4909126019111FB
S11301501092260190912601992361F09091270134
S1130160993240F4E92FF0E0E35DFE4F80839F5F16
S1130170909327018EBDFF91EF91BF91AF919F9115
S11301808F913F912F910F900FBE0F901F90189554
S11301908AB184608AB98AB188608AB98AB1806177
S11301A08AB98AB180628AB90E94590086E591E0D1
S11301B09F938F938CE291E09F938F9387E591E0D7
S11301C09F938F938BE291E09F938F9381E091E0D3
S11301D09F938F938DE291E09F938F930E940D01E3
S11301E09091280180912B012DB73EB7245F3F4F9A
S11301F00FB6F8943EBF0FBE2DBF981307C08BB146
S113020084608BB98BB1877F8BB9D0CF8BB18B7F57
S11302108BB98BB188608BB9C9CFAEE0B0E0E3E1B4
S1130220F1E00C94510485E08C838B899C899A833A
S11302308983AE01495E5F4F6D897E89CE01019647
S11302400E94C2022E96E2E00C946D0420FD09C0C7
S1130250FC0123FD05C022FF02C073836283518326
S11302604083089544FD17C046FD17C0AB01BC018F
S1130270DA01FB01AA0FBB1FEE1FFF1F1094D1F779
S11302804A0F5B1F6E1F7F1FCB01BA01660F771FDA
S1130290881F991F09C033E001C034E0660F771F3F
S11302A0881F991F3150D1F7620F711D811D911D57
S11302B008950F931F93CF93DF938C01C8010E947D
S11302C0E703EC0197FD08C00E94D303892BB1F723
S11302D0B801CE010E942504CE01DF91CF911F9178
S11302E00F9108958F929F92AF92BF92EF92FF92D7
S11302F00F931F93CF93DF938C01D62F7A01B22EE5
S11303000E94E7039C0133272B32310531F02D3253
S1130310310561F48B2D8068B82ED15011F480E042
S113032068C0C8010E94E70397FDF9CFCB2DCD7FAC
S11303302B2D207309F58033F9F4AA24AA94AD0E69
S113034009F443C0C8010E94E70397FD3EC09C0125
S11303502F7D33272835310549F4C264D250A9F1E1
S1130360C8010E94E70397FF07C02FC0B6FE02C072
S1130370C26001C0C261DA2D812C912C540120EDA0
S1130380280F283080F0C4FF04C0B8010E9425045F
S113039019C02A3040F0C6FFF8CF2F7D3FEE320F50
S11303A0363098F727504C2FC501B4010E94320112
S11303B04B015C01C260D15059F0C8010E94E703AF
S11303C097FFDDCFC1FD04C0AACF812C912C54012D
S11303D0C7FF08C0B094A09490948094811C911C91
S11303E0A11CB11C2C2FB501A401C7010E94260138
S11303F081E0DF91CF911F910F91FF90EF90BF901B
S1130400AF909F908F900895A0E2B0E0EAE0F2E010
S11304100C9444045C01962E7A01F9018E010F5F5D
S11304201F4F680180E2D8011D928A95E9F7D50132
S113043013968C9080E090E0612C712C30E061E0A8
S113044070E083FC259183FE21918F01522E2111AE
S113045003C080E090E092C02E3511F4009751F172
S1130460432F50E0481759073CF42D3559F12D32EC
S113047019F4772009F103C0772009F46AC0452DE7
S1130480469546954695D601A40FB11D452D477056
S11304908B0102C0000F111F4A95E2F7A8015C917D
S11304A0452B4C93651459F0561410F45394E7CF2C
S11304B05A94E5CF31E004C07724739401C0712CC1
S11304C00196BFCF772019F08E8180628E8331111F
S11304D003C08824839417C0F6019E012F5D3F4F0B
S11304E08081809581932E173F07D1F7F2CFE114D5
S11304F0F10429F0D7018C93F70131967F019A9486
S1130500812C9920F9F0C5010E94E70397FD18C0DA
S1130510FC01FF2723E0F595E7952A95E1F7EC0D1B
S1130520FD1D208130E0AC014770552702C0359590
S113053027954A95E2F720FDDACFB5010E942504FC
S1130540811087CFE114F10411F0D7011C92C80186
S113055015C0422F469546954695D601A40FB11D68
S1130560422F47708B0102C0000F111F4A95E2F71A
S1130570A8015C91452B4C93622EA2CFA096EFE08C
S11305800C946004A0E0B0E0E8ECF2E00C944404C5
S11305906C01EB015A01FC0117821682512CF60101
S11305A0E380FE01E3FC8591E3FE8191182FEF01C6
S11305B0882309F4EEC090E00E94D303892B21F034
S11305C0C6010E945901EBCF153241F4FE01E3FC50
S11305D01591E3FE1191EF01153281F4C6010E94D9
S11305E0E70397FDD4C0412F50E09C013327241723
S11305F03507A9F2B6010E942504CBC01A3239F49A
S1130600E3FC1591E3FE1191EF0101E001C000E06C
S1130610F12C20ED210F2A3080F402606F2D70E060
S113062080E090E040E20E943201F62EFE01E3FCFD
S11306301591E3FE1191EF01ECCF01FF03C0F1101E
S113064003C0A7C0FF24FA94183619F01C3651F0E1
S113065010C0FE01E3FC1591E3FE1191EF01183681
S113066041F408600460FE01E3FC1591E3FE11917E
S1130670EF01112309F48DC0612F70E088E690E04A
S11306800E94DC03892B09F484C000FD07C0F50136
S113069080809180C50102965C0102C0812C912C5E
S11306A01E3651F4F6014681578160E070E0202F38
S11306B0C4010E94260173CF1336A9F401FD02C0C0
S11306C0FF24F394C6010E94E70397FD60C08114E0
S11306D0910429F0F4018083C40101964C01FA9439
S11306E0F110F0CF50C01B3559F49E01A4016F2DB9
S11306F0C6010E940402EC01892B09F044C03EC0EB
S1130700C6010E94590197FD42C01F3661F128F4C9
S1130710143639F1193651F128C0133771F01537F1
S113072001F123C08114910429F0F4016082C40111
S113073001964C01FA94FF2071F0C6010E94E70370
S11307403C0197FD08C00E94D303892B59F3B601DD
S1130750C3010E94250481149104A9F0F4011082BC
S113076012C0006203C0006101C00064202FA40114
S11307706F2DC6010E947201811105C0F6018381AB
S1130780807329F406C000FD0ACF539408CF552086
S113079019F0852D90E002C08FEF9FEFCDB7DEB743
S11307A0EFE00C94600491110C943E04803219F033
S11307B089508550C8F70895FC010590061621F06C
S11307C00020D9F7C00108953197CF010895CF9340
S11307D0DF93EC012B8120FF33C026FF0AC02F7B5F
S11307E02B838E819F8101969F838E838A8190E0E3
S11307F029C022FF0FC0E881F9818081082E000CF6
S1130800990B009719F420622B831AC03196F9834F
S1130810E8830EC0EA85FB85099597FF09C02B8103
S1130820019611F080E201C080E1822B8B8308C025
S11308302E813F812F5F3F4F3F832E83992702C034
S11308408FEF9FEFDF91CF910895FB01238120FF6C
S113085012C026FD10C08F3F3FEF930761F08283E3
S11308602F7D2064238326813781215031093783EA
S11308702683992708958FEF9FEF08959927882756
S113088008952F923F924F925F926F927F928F9230
S11308909F92AF92BF92CF92DF92EF92FF920F930B
S11308A01F93CF93DF93CDB7DEB7CA1BDB0B0FB615
S11308B0F894DEBF0FBECDBF09942A8839884888D2
S11308C05F846E847D848C849B84AA84B984C88468
S11308D0DF80EE80FD800C811B81AA81B981CE0F5F
S11308E0D11D0FB6F894DEBF0FBECDBFED01089544
S10708F0F894FFCFA6
S11308F4017B226964223A25642C2022666E6322D9
S11309043A25752C202270726D223A5B25752C20B1
S109091425755D7D000065
S9030000FC
