:100000000C9434000C9451000C9451000C94510049
:100010000C9451000C9451000C9451000C9451001C
:100020000C9451000C9451000C9451000C9451000C
:100030000C9451000C9451000C9451000C945100FC
:100040000C9451000C9451000C9451000C945100EC
:100050000C9451000C9451000C9451000C945100DC
:100060000C9451000C94510011241FBECFEFD8E026
:10007000DEBFCDBF11E0A0E0B1E0E0E9F2E002C0F8
:1000800005900D92A430B107D9F721E0A4E0B1E0CA
:1000900001C01D92A031B207E1F70E94AC000C94A0
:1000A00046010C940000ECE7F0E080818F778083BC
:1000B00080818064808380818F7D8083EAE7F0E0A7
:1000C0008081816080838081826080838081846080
:1000D000808380818068808308958F70ECE7F0E0F2
:1000E0009081907F892B8083EAE7F0E080818064B3
:1000F000808380917A0086FDFCCF8091780090917A
:10010000790008959C0140E050E060E472E48FE0E3
:1001100090E00E94D000215031093093C500209317
:10012000C40088E18093C10086E08093C2000895F6
:100130009091C00095FFFCCF8093C6000895CF93A7
:10014000DF93EC0103C021960E9498008881811101
:10015000FACFDF91CF91089580E895E20E94820066
:100160000E94530080E00E946D00909305018093EF
:1001700004014AE066E071E00E94110186E091E02E
:100180000E949F0080E091E00E949F002FEF83ED8E
:1001900090E3215080409040E1F700C00000E2CFA2
:1001A000052E97FB1EF400940E94E70057FD07D030
:1001B0000E94EF0007FC03D04EF40C94E70050952A
:1001C0004095309521953F4F4F4F5F4F0895909543
:1001D0008095709561957F4F8F4F9F4F0895A1E255
:1001E0001A2EAA1BBB1BFD010DC0AA1FBB1FEE1FB1
:1001F000FF1FA217B307E407F50720F0A21BB30BFC
:10020000E40BF50B661F771F881F991F1A9469F777
:1002100060957095809590959B01AC01BD01CF01D3
:100220000895BB274A3031F4992322F4BDE290951A
:1002300081959F4F0C941D01BB27FB015527AA27D1
:10024000880F991FAA1FA41710F0A41B8395505163
:10025000B9F7A05DAA3308F0A95DA193009779F7DB
:10026000B111B1931192CB010C943601DC01FC0168
:10027000672F71917723E1F7329704C07C916D93DA
:1002800070836291AE17BF07C8F30895F894FFCF4B
:040290000D0A000053
:00000001FF
