S013000055415254776974684C69622E7372656302
S11300000C943A000C9457000C9457000C9457002D
S11300100C9457000C9457000C9457000C94570000
S11300200C9457000C9457000C9457000C945700F0
S11300300C9457000C9457000C9457000C945700E0
S11300400C9457000C9457000C9457000C945700D0
S11300500C9457000C9457000C9457000C945700C0
S11300600C9457000C9457006364696E6F70737539
S113007078585B0011241FBECFEFD8E0DEBFCDBFA0
S113008012E0A0E0B1E0ECE8F9E002C005900D92C6
S1130090AC30B107D9F722E0ACE0B2E001C01D9268
S11300A0A134B207E1F70E9459000C94C4040C94E3
S11300B00000CF93DF93CDB7DEB728970FB6F8943F
S11300C0DEBF0FBECDBF87E690E00E949D000E9478
S11300D0C900CE0107969F938F9302979F938F93A6
S11300E002979F938F9302979F938F9380E091E061
S11300F09F938F938DE092E09F938F930E94590179
S11301002F8138854D815E816B817C8189819A81C3
S11301100E94FB00182F0FB6F894DEBF0FBECDBFB0
S1130120111104C08CE091E00E94B600112379F211
S113013087E291E00E94B600CACF9093C5008093F5
S1130140C40088E18093C10086E08093C2000895D2
S11301508091C0008823E4F78091C60008959091AF
S1130160C00095FFFCCF8093C6000895CF93DF9322
S1130170EC0103C021960E94AF0088818111FACF5F
S11301808DE00E94AF008AE00E94AF00DF91CF9122
S113019008951092400210923F020E94A8008832F3
S11301A031F481E080933F0210924002F6CF89320D
S11301B089F490913F02992369F0E0914002F0E0C4
S11301C0E35FFD4F10828DE00E94AF008AE00E9441
S11301D0AF00089590913F029923F9F2E091400213
S11301E0E133D8F691E09E0F90934002F0E0E35F94
S11301F0FD4F8083D2CFEF92FF920F931F93CF9343
S1130200DF93EB017A01890110920C02019739F016
S113021085E491E00E94B60081E080930C02C13035
S1130220D10559F484E0E816F10438F083E791E04D
S11302300E94B60081E080930C02C430D105B1F471
S11302408FEFE816F10441F038F086EA91E00E945D
S1130250B60081E080930C020B30110538F086EC77
S113026091E00E94B60081E080930C022697C1F4CD
S11302708FEFE816F10441F038F086EA91E00E942D
S1130280B60081E080930C020C541F4F09361140D4
S113029038F089EE91E00E94B60081E080930C0270
S11302A080910C02DF91CF911F910F91FF90EF90FD
S11302B00895AEE0B0E0EFE5F1E00C949D0485E034
S11302C08C838B899C899A838983AE01495E5F4FB5
S11302D06D897E89CE0101960E940E032E96E2E07E
S11302E00C94B90420FD09C0FC0123FD05C022FFC4
S11302F002C07383628351834083089544FD17C011
S113030046FD17C0AB01BC01DA01FB01AA0FBB1FFC
S1130310EE1FFF1F1094D1F74A0F5B1F6E1F7F1F44
S1130320CB01BA01660F771F881F991F09C033E0FC
S113033001C034E0660F771F881F991F3150D1F731
S1130340620F711D811D911D08950F931F93CF930B
S1130350DF938C01C8010E943304EC0197FD08C0AF
S11303600E941F04892BB1F7B801CE010E947104C9
S1130370CE01DF91CF911F910F9108958F929F929B
S1130380AF92BF92EF92FF920F931F93CF93DF939D
S11303908C01D62F7A01B22E0E9433049C0133279C
S11303A02B32310531F02D32310561F48B2D80680B
S11303B0B82ED15011F480E068C0C8010E94330403
S11303C097FDF9CFCB2DCD7F2B2D207309F58033ED
S11303D0F9F4AA24AA94AD0E09F443C0C8010E94FA
S11303E0330497FD3EC09C012F7D3327283531050A
S11303F049F4C264D250A9F1C8010E94330497FFA2
S113040007C02FC0B6FE02C0C26001C0C261DA2DAF
S1130410812C912C540120ED280F283080F0C4FF4A
S113042004C0B8010E94710419C02A3040F0C6FF0C
S1130430F8CF2F7D3FEE320F363098F727504C2FF0
S1130440C501B4010E947E014B015C01C260D15020
S113045059F0C8010E94330497FFDDCFC1FD04C0E9
S1130460AACF812C912C5401C7FF08C0B094A0944A
S113047090948094811C911CA11CB11C2C2FB5015B
S1130480A401C7010E94720181E0DF91CF911F9105
S11304900F91FF90EF90BF90AF909F908F90089531
S11304A0A0E2B0E0E6E5F2E00C9490045C01962E44
S11304B07A01F9018E010F5F1F4F680180E2D801B4
S11304C01D928A95E9F7D50113968C9080E090E00F
S11304D0612C712C30E061E070E083FC259183FE97
S11304E021918F01522E211103C080E090E092C02F
S11304F02E3511F4009751F1432F50E04817590756
S11305003CF42D3559F12D3219F4772009F103C04B
S1130510772009F46AC0452D469546954695D6013F
S1130520A40FB11D452D47708B0102C0000F111F90
S11305304A95E2F7A8015C91452B4C93651459F058
S1130540561410F45394E7CF5A94E5CF31E004C025
S11305507724739401C0712C0196BFCF772019F0D2
S11305608E8180628E83311103C08824839417C0E6
S1130570F6019E012F5D3F4F8081809581932E1758
S11305803F07D1F7F2CFE114F10429F0D7018C939E
S1130590F70131967F019A94812C9920F9F0C501D5
S11305A00E94330497FD18C0FC01FF2723E0F59552
S11305B0E7952A95E1F7EC0DFD1D208130E0AC01B3
S11305C04770552702C0359527954A95E2F720FDD7
S11305D0DACFB5010E947104811087CFE114F104D0
S11305E011F0D7011C92C80115C0422F46954695BB
S11305F04695D601A40FB11D422F47708B0102C04E
S1130600000F111F4A95E2F7A8015C91452B4C930A
S1130610622EA2CFA096EFE00C94AC04A0E0B0E070
S1130620E4E1F3E00C9490046C01EB015A01FC0149
S113063017821682512CF601E380FE01E3FC8591BA
S1130640E3FE8191182FEF01882309F4EEC090E0B6
S11306500E941F04892B21F0C6010E94A501EBCF43
S1130660153241F4FE01E3FC1591E3FE1191EF0113
S1130670153281F4C6010E94330497FDD4C0412F82
S113068050E09C01332724173507A9F2B6010E94D4
S11306907104CBC01A3239F4E3FC1591E3FE1191D5
S11306A0EF0101E001C000E0F12C20ED210F2A3020
S11306B080F402606F2D70E080E090E040E20E94E0
S11306C07E01F62EFE01E3FC1591E3FE1191EF018C
S11306D0ECCF01FF03C0F11003C0A7C0FF24FA94BC
S11306E0183619F01C3651F010C0FE01E3FC1591C8
S11306F0E3FE1191EF01183641F408600460FE0135
S1130700E3FC1591E3FE1191EF01112309F48DC06F
S1130710612F70E088E690E00E942804892B09F498
S113072084C000FD07C0F50180809180C501029658
S11307305C0102C0812C912C1E3651F4F6014681D5
S1130740578160E070E0202FC4010E94720173CFD2
S11307501336A9F401FD02C0FF24F394C6010E94DC
S1130760330497FD60C08114910429F0F40180835F
S1130770C40101964C01FA94F110F0CF50C01B351E
S113078059F49E01A4016F2DC6010E945002EC0190
S1130790892B09F044C03EC0C6010E94A50197FD03
S11307A042C01F3661F128F4143639F1193651F17B
S11307B028C0133771F0153701F123C08114910457
S11307C029F0F4016082C40101964C01FA94FF20DF
S11307D071F0C6010E9433043C0197FD08C00E94D9
S11307E01F04892B59F3B601C3010E9471048114BB
S11307F09104A9F0F401108212C0006203C00061E8
S113080001C00064202FA4016F2DC6010E94BE0107
S1130810811105C0F6018381807329F406C000FDAF
S11308200ACF539408CF552019F0852D90E002C0CB
S11308308FEF9FEFCDB7DEB7EFE00C94AC049111CE
S11308400C948A04803219F089508550C8F70895B1
S1130850FC010590061621F00020D9F7C001089587
S11308603197CF010895CF93DF93EC012B8120FFC3
S113087033C026FF0AC02F7B2B838E819F81019674
S11308809F838E838A8190E029C022FF0FC0E88174
S1130890F9818081082E000C990B009719F42062CD
S11308A02B831AC03196F983E8830EC0EA85FB8551
S11308B0099597FF09C02B81019611F080E201C0D0
S11308C080E1822B8B8308C02E813F812F5F3F4FB5
S11308D03F832E83992702C08FEF9FEFDF91CF9143
S11308E00895FB01238120FF12C026FD10C08F3F15
S11308F03FEF930761F082832F7D20642383268159
S113090037812150310937832683992708958FEF42
S11309109FEF08959927882708952F923F924F9229
S11309205F926F927F928F929F92AF92BF92CF927B
S1130930DF92EF92FF920F931F93CF93DF93CDB784
S1130940DEB7CA1BDB0B0FB6F894DEBF0FBECDBFFC
S113095009942A88398848885F846E847D848C84CD
S11309609B84AA84B984C884DF80EE80FD800C81D6
S11309701B81AA81B981CE0FD11D0FB6F894DEBFB9
S10F09800FBECDBFED010895F894FFCF29
S113098C25642C25642C25642C256400456C20637B
S113099C6F6D616E646F20736572E120656A6563C7
S11309AC757461646F2E00496E6772657361722091
S11309BC656C20636F6D616E646F206465206E7569
S11309CC65766F2E004572726F723A20496E6772AB
S11309DC657361722064697265636369F36E206484
S11309EC65206D6F746F72206578697374656E74AD
S11309FC652E004572726F723A20456C206D6963E6
S1130A0C726F7374657070696E672065737461209E
S1130A1C66756572612064652072616E676F20284B
S1130A2C302D33292E004572726F723A2052616E4A
S1130A3C676F2064652052504D20696E636F72722B
S1130A4C6563746F2E004572726F723A2052616E38
S1130A5C676F206465207469656D706F20696E63BF
S1130A6C6F72726563746F2E004572726F723A20E6
S1130A7C52616E676F20646520E16E67756C6F2040
S10F0A8C696E636F72726563746F2E00F4
S9030000FC
