:100000000C9434000C9451000C9451000C94510049
:100010000C9451000C9451000C9451000C9451001C
:100020000C9451000C9451000C9451000C941F023C
:100030000C9451000C9451000C9451000C945100FC
:100040000C9451000C9451000C9451000C945100EC
:100050000C9451000C9451000C9451000C945100DC
:100060000C9451000C94510011241FBECFEFD8E026
:10007000DEBFCDBF11E0A0E0B1E0E0EFFDE002C0E7
:1000800005900D92A232B107D9F721E0A2E2B1E0CA
:1000900001C01D92A535B207E1F70E9490030C94B0
:1000A000F6060C94000084B1826084B984B181604A
:1000B00084B98AB180688AB98AB180648AB98AB100
:1000C00080628AB98AB180618AB98AB188608AB946
:1000D0008BB180628BB98BB180618BB9E1E8F0E0C4
:1000E00080818F7E8083808188608083E0E8F0E07B
:1000F00080818D7F808380818E7F808380818F77D8
:100100008083808180648083EFE6F0E0808182607C
:1001100080830895E1E8F0E080818B7F8083808197
:100120008260808380818E7F8083089540912C013E
:1001300050912D01849F9001859F300D949F300D2B
:100140001124A9E8B8E80E949006969587959295A3
:1001500082958F7089279F70892790932F018093B4
:100160002E019C0140E050E060E472E48FE090E0FA
:100170000E947106C9010197909336018093350161
:1001800008958230C9F128F4882351F08130F1F0CC
:100190000895833009F446C0843009F459C00895A5
:1001A00085B18E7F85B98BB18F778BB98BB18F7B02
:1001B0008BB988EC90E090932D0180932C0181E025
:1001C00090E090933A0180933901089585B1816060
:1001D00085B98BB18F778BB98BB18F7B8BB980E968
:1001E00091E090932D0180932C0182E090E0909318
:1001F0003A0180933901089585B18E7F85B98BB11D
:1002000080688BB98BB18F7B8BB980E293E0909340
:100210002D0180932C0184E090E090933A0180932B
:100220003901089585B1816085B98BB180688BB93A
:100230008BB18F7B8BB980E496E090932D018093F6
:100240002C0188E090E090933A0180933901089561
:1002500085B1816085B98BB180688BB98BB18064C1
:100260008BB980E89CE090932D0180932C0180E174
:1002700090E090933A018093390108958BB18860A2
:100280008BB90895E1E8F0E080818B7F80838081E5
:100290008D7F808380818E7F808310928500109275
:1002A00084001092320108950F931F93CF93DF9330
:1002B000EC018B018091220190912301892BD1F7D0
:1002C0000E948A00CE010E94960090933C01809388
:1002D0003B0180910001909101010E949600FC0178
:1002E000909334018093330180910001909101013A
:1002F0008C179D07E0F5D0932B01C0932A018091C4
:100300002C0190912D01C89F9001C99F300DD89F5D
:10031000300D1124A9E8B8E80E949006AC0156956A
:100320004795529542954F7045275F70452720911C
:100330003B0130913C01CF01821B930B409FB001E8
:10034000419F700D509F700D11240E945D067093A7
:100350003801609337013093250120932401F093F5
:100360008900E093880081E0809332013BC0D09304
:100370002B01C0932A0140912C0150912D01849FA3
:100380009001859F300D949F300D1124A9E8B8E8A5
:100390000E949006AC0156954795529542954F7034
:1003A00045275F70452720913B0130913C01C901F1
:1003B0008E1B9F0B049FB001059F700D149F700D45
:1003C00011240E945D0670933801609337013093C9
:1003D000250120932401F0938900E093880082E0B6
:1003E0008093320181E090E0909323018093220179
:1003F000DF91CF911F910F91089520918800309146
:1004000089002F5F3F4F22953295307F3227207F22
:10041000322740E050E060E074E284EF90E00E9418
:1004200071066CE3629FC001639F900D112460917F
:100430002C0170912D010E945D06CB0108951F9241
:100440000F920FB60F9211242F933F934F935F9308
:100450006F937F938F939F93AF93BF93EF93FF938C
:100460008091220190912301892B09F477C080911A
:1004700032018130C9F5809133019091340120918E
:100480002401309125012817390728F520913701DB
:1004900030913801821B930B909334018093330188
:1004A000209124013091250182179307A0F48091B7
:1004B0002401909125019093340180933301809120
:1004C0002A0190912B0190930101809300011092D9
:1004D0002301109222018091330190913401909375
:1004E0008900809388003AC08230C1F520913301A1
:1004F000309134018091240190912501281739070A
:1005000028F58091370190913801820F931F9093C5
:100510003401809333012091240130912501281763
:100520003907A0F480912401909125019093340122
:100530008093330180912A0190912B0190930101C6
:1005400080930001109223011092220180913301C7
:1005500090913401909389008093880080913201BA
:100560008330E1F480913D0190913E01892BB1F0FF
:100570008091260190912701019690932701809305
:10058000260120913001309131018217930730F01C
:1005900010923E0110923D010E944201FF91EF91A5
:1005A000BF91AF919F918F917F916F915F914F918B
:1005B0003F912F910F900FBE0F901F901895ECE771
:1005C000F0E080818F778083808180648083808168
:1005D0008F7D8083EAE7F0E0808181608083808185
:1005E0008260808380818460808380818068808352
:1005F0008AB184608AB98BB184608BB908958F7099
:10060000ECE7F0E09081907F892B8083EAE7F0E0CF
:1006100080818064808380917A0086FDFCCF809108
:10062000780090917900089580E00E94FF02BC015B
:1006300080E090E00E94620520E030E044EB53E46B
:100640000E94F00520E030EC4FE754E40E94BA0429
:100650000E943305CB0108950E941403BC018091D0
:100660002801909129010097B1F0681B790B9B013B
:100670007AF4072E000C880B990B0E94640520E089
:1006800030E044EB53E40E944E040E942C059B0191
:10069000822F932F0895862F972F089581E00E942F
:1006A000FF02BC0180E090E00E94620520E030E0A3
:1006B00040EA50E40E94F00520E030EC4FE754E4BB
:1006C0000E94BA040E943305CB0108959C0140E0CA
:1006D00050E060E472E48FE090E00E9471062150E7
:1006E00031093093C5002093C40088E18093C10094
:1006F00086E08093C20008959091C00095FFFCCFE2
:100700008093C6000895CF93DF93EC0103C0219638
:100710000E947C0388818111FACFDF91CF910895E7
:1007200080E895E20E9466030E94DF020E94530067
:100730007894C1E0D0E02097B1F00E943E0180E0C3
:100740000E94C1002FEF83E294EF2150804090403F
:10075000E1F700C0000065E070E084E190E00E94F5
:100760005401C0E0D0E00E942C03BC0180E090E086
:100770000E94620560933F017093400180934101A4
:10078000909342010E944E03BC0180E090E00E94E1
:1007900062056093430170934401809345019093F7
:1007A00046010E94FD01BC0180E090E00E946205CC
:1007B00060935101709352018093530190935401BF
:1007C00060913F01709140018091410190914201FF
:1007D0000E942C05DC01CB014AE067E471E00E9435
:1007E000C10682E091E00E94830387E491E00E94C9
:1007F000830389E091E00E9483038FE39CE90197E2
:10080000F1F700C000008CE091E00E94830360914A
:1008100043017091440180914501909146010E94ED
:100820002C05DC01CB014AE067E471E00E94C106BF
:1008300087E491E00E94830389E091E00E948303B2
:100840008FE39CE90197F1F700C0000087E191E098
:100850000E94830360915101709152018091530174
:10086000909154010E942C05DC01CB014AE067E421
:1008700071E00E94C10687E491E00E94830389E051
:1008800091E00E9483039FEF23ED80E3915020408D
:100890008040E1F700C000004ECF5058BB27AA2788
:1008A0000E9465040C94B6050E94A80538F00E94C9
:1008B000AF0520F039F49F3F19F426F40C94A505F8
:1008C0000EF4E095E7FB0C949F05E92F0E94C70505
:1008D00058F3BA17620773078407950720F079F475
:1008E000A6F50C94E9050EF4E0950B2EBA2FA02D79
:1008F0000B01B90190010C01CA01A0011124FF27CD
:10090000591B99F0593F50F4503E68F11A16F040C7
:10091000A22F232F342F4427585FF3CF46953795C6
:100920002795A795F0405395C9F77EF41F16BA0B8B
:10093000620B730B840BBAF09150A1F0FF0FBB1F39
:10094000661F771F881FC2F70EC0BA0F621F731F82
:10095000841F48F4879577956795B795F7959E3FDF
:1009600008F0B0CF9395880F08F09927EE0F979570
:10097000879508950E94CE040C94B6050E94AF0599
:1009800058F00E94A80540F029F45F3F29F00C942C
:100990009F0551110C94EA050C94A5050E94C7050A
:1009A00068F39923B1F3552391F3951B550BBB279E
:1009B000AA2762177307840738F09F5F5F4F220FE3
:1009C000331F441FAA1FA9F335D00E2E3AF0E0E8DA
:1009D00032D091505040E695001CCAF72BD0FE2F24
:1009E00029D0660F771F881FBB1F261737074807B8
:1009F000AB07B0E809F0BB0B802DBF01FF27935870
:100A00005F4F3AF09E3F510578F00C949F050C948F
:100A1000EA055F3FE4F3983ED4F3869577956795B2
:100A2000B795F7959F5FC9F7880F911D96958795A4
:100A300097F90895E1E0660F771F881FBB1F6217C3
:100A400073078407BA0720F0621B730B840BBA0B81
:100A5000EE1F88F7E09508950E9433056894B11160
:100A60000C94EA0508950E94CF0588F09F5798F0EE
:100A7000B92F9927B751B0F0E1F0660F771F881FA3
:100A8000991F1AF0BA95C9F714C0B13091F00E94BD
:100A9000E905B1E008950C94E905672F782F8827C0
:100AA000B85F39F0B93FCCF3869577956795B395E4
:100AB000D9F73EF490958095709561957F4F8F4F53
:100AC0009F4F0895E89409C097FB3EF49095809558
:100AD000709561957F4F8F4F9F4F9923A9F0F92F04
:100AE00096E9BB279395F695879577956795B79582
:100AF000F111F8CFFAF4BB0F11F460FF1BC06F5F68
:100B00007F4F8F4F9F4F16C0882311F096E911C079
:100B1000772321F09EE8872F762F05C0662371F09A
:100B200096E8862F70E060E02AF09A95660F771FAE
:100B3000881FDAF7880F9695879597F9089597F9A2
:100B40009F6780E870E060E008959FEF80EC089573
:100B500000240A941616170618060906089500249C
:100B60000A9412161306140605060895092E039416
:100B7000000C11F4882352F0BB0F40F4BF2B11F48A
:100B800060FF04C06F5F7F4F8F4F9F4F089557FDE9
:100B90009058440F551F59F05F3F71F04795880FEB
:100BA00097FB991F61F09F3F79F087950895121682
:100BB00013061406551FF2CF4695F1DF08C016162E
:100BC00017061806991FF1CF8695710561050894DF
:100BD0000895E894BB2766277727CB0197F90895F6
:100BE0000E9403060C94B6050E94A80538F00E94E6
:100BF000AF0520F0952311F00C949F050C94A505EA
:100C000011240C94EA050E94C70570F3959FC1F367
:100C1000950F50E0551F629FF001729FBB27F00DAA
:100C2000B11D639FAA27F00DB11DAA1F649F6627FF
:100C3000B00DA11D661F829F2227B00DA11D621F4E
:100C4000739FB00DA11D621F839FA00D611D221F08
:100C5000749F3327A00D611D231F849F600D211DEC
:100C6000822F762F6A2F11249F5750409AF0F1F06F
:100C700088234AF0EE0FFF1FBB1F661F771F881FD8
:100C800091505040A9F79E3F510580F00C949F056C
:100C90000C94EA055F3FE4F3983ED4F3869577958C
:100CA0006795B795F795E7959F5FC1F7FE2B880F7E
:100CB000911D9695879597F90895AA1BBB1B51E145
:100CC00007C0AA1FBB1FA617B70710F0A61BB70BBC
:100CD000881F991F5A95A9F780959095BC01CD0161
:100CE0000895052E97FB1EF400940E94880657FD78
:100CF00007D00E949F0607FC03D04EF40C94880690
:100D000050954095309521953F4F4F4F5F4F089537
:100D100090958095709561957F4F8F4F9F4F089567
:100D2000A29FB001B39FC001A39F700D811D11242C
:100D3000911DB29F700D811D1124911D0895A1E296
:100D40001A2EAA1BBB1BFD010DC0AA1FBB1FEE1F45
:100D5000FF1FA217B307E407F50720F0A21BB30B90
:100D6000E40BF50B661F771F881F991F1A9469F70C
:100D700060957095809590959B01AC01BD01CF0168
:100D80000895BB274A3031F4992322F4BDE29095AF
:100D900081959F4F0C94CD06BB27FB015527AA27B1
:100DA000880F991FAA1FA41710F0A41B83955051F8
:100DB000B9F7A05DAA3308F0A95DA193009779F770
:100DC000B111B1931192CB010C94E606DC01FC0148
:100DD000672F71917723E1F7329704C07C916D936F
:100DE00070836291AE17BF07C8F30895F894FFCFE0
:100DF0000600416E676C653A000D0A00436F72721F
:100E000069656E74653A0056656C6F636964616408
:020E10003A00A6
:00000001FF
