S00E00004D61737465722E73726563AA
S11300000C9434000C9451000C9451000C94510045
S11300100C9451000C9451000C9451000C94510018
S11300200C9451000C9451000C9451000C94510008
S11300300C9451000C9451000C9451000C945100F8
S11300400C9451000C9451000C9451000C945100E8
S11300500C9451000C9451000C9451000C945100D8
S11300600C9451000C94510011241FBECFEFD8E022
S1130070DEBFCDBF11E0A0E0B1E0E8EDF7E002C0E3
S113008005900D92AC32B107D9F721E0ACE2B1E0B2
S113009001C01D92AF35B207E1F70E949A000C949B
S11300A0EA030C94000084B1886084B984B180624E
S11300B084B984B1846084B984B18F7E84B985B1F4
S11300C0846085B98CB580648CBD8CB580618CBD31
S11300D08CB58E7F8CBD8CB58D7F8CBD8CB58E7FA1
S11300E08CBD08958EBD0DB407FEFDCF089585B176
S11300F0846085B9089585B18B7F85B90895CF93C0
S1130100C0E014C00E947B0081E00E9472008FE373
S11301109CE90197F1F700C000000E9477008FE38B
S11301209CE90197F1F700C00000CF5FCE3050F397
S1130130CF9108958AB184608AB98AB188608AB9F6
S11301408AB180618AB98AB180628AB90E945300F7
S11301508FE39CE90197F1F700C000000E947F0043
S113016080912C01843019F48BB184608BB981E0C7
S1130170EFE3FCE93197F1F700C000008823C1F3F5
S1130180E0E0F1E083818F9382818F9381818F936B
S113019080818F93809105018F93809104018F93C7
S11301A0809107018F93809106018F9388E091E0FD
S11301B09F938F938DE291E09F938F930E94000110
S11301C08DB79EB70C960FB6F8949EBF0FBE8DBF29
S11301D0C0E012C00E947B00EC2FF0E0E35DFE4F14
S11301E080810E947200EFE3FCE93197F1F700C0CF
S11301F000000E947700CF5F80E0CE3258F3B8CF82
S1130200AEE0B0E0E6E0F1E00C94C1030D891E8994
S113021086E08C831A8309838FEF9FE79E838D8307
S1130220AE01475E5F4F6F89788DCE0101960E94C3
S11302302201EF81F885E00FF11F10822E96E4E091
S11302400C94DD03ABE0B0E0E8E2F1E00C94B3031E
S11302506C017B018A01FC0117821682838181FF74
S1130260CCC1CE0101963C01F6019381F70193FDC7
S1130270859193FF81917F01882309F4BAC1853266
S113028039F493FD859193FF81917F01853229F49F
S1130290B60190E00E941903E7CF912C212C312C58
S11302A0FFE1F315D8F08B3279F038F4803279F02D
S11302B08332A1F4232D20611DC08D3261F080337F
S11302C069F4232D216016C0832D8260382EE32D1E
S11302D0E4603E2E2AC0F32DF8601DC037FC2DC00B
S11302E020ED280F2A3040F08E32B9F436FC81C15B
S11302F0232D2064322E19C036FE06C08AE0989E53
S1130300200D1124922E11C0EAE02E9E200D1124FE
S1130310222EF32DF0623F2E08C08C3621F4832D5B
S11303208068382E02C0883641F4F70193FD859128
S113033093FF81917F018111B3CF982F9F7D9554B5
S1130340933028F40C5F1F4F9FE399830DC08336CD
S113035031F0833771F0833509F059C021C0F801B9
S1130360808189830E5F1F4F88248394912C5301CD
S113037013C02801F2E04F0E511CF801A080B18097
S113038036FE03C0692D70E002C06FEF7FEFC50138
S11303900E940E034C018201F32DFF773F2E16C0FD
S11303A0280122E0420E511CF801A080B18036FEE3
S11303B003C0692D70E002C06FEF7FEFC5010E949A
S11303C003034C01F32DF0683F2E820133FC1BC064
S11303D0822D90E088169906B0F4B60180E290E090
S11303E00E9419032A94F4CFF50137FC859137FE56
S11303F081915F01B60190E00E94190321102A94B3
S113040021E0821A91088114910471F7E8C08436BE
S113041011F0893641F5F80137FE07C0608171811A
S1130420828193810C5F1F4F08C060817181072E08
S1130430000C880B990B0E5F1F4FF32DFF763F2E98
S113044097FF09C090958095709561957F4F8F4F68
S11304509F4FF0683F2E2AE030E0A3010E9455032D
S1130460882E861845C0853731F4232D2F7EB22E71
S11304702AE030E025C0932D997FB92E8F36C1F044
S113048018F4883579F0B5C0803719F0883721F031
S1130490B0C0E92FE061BE2EB4FE0DC0FB2DF460A8
S11304A0BF2E09C034FE0AC0292F2660B22E06C012
S11304B028E030E005C020E130E002C020E132E075
S11304C0F801B7FE07C060817181828193810C5F5E
S11304D01F4F06C06081718180E090E00E5F1F4F66
S11304E0A3010E945503882E8618FB2DFF773F2E0B
S11304F036FE0DC0232D2E7FA22E891458F434FE0F
S11305000BC032FC09C0832D8E7EA82E05C0B82CEA
S1130510A32C03C0B82C01C0B92CA4FE0FC0FE014B
S1130520E80DF11D8081803321F49A2D997EA92E46
S113053009C0A2FE06C0B394B39404C08A2D867881
S113054009F0B394A3FC11C0A0FE06C0B21488F451
S1130550280C922C9B180EC0B21460F4B60180E2F1
S113056090E00E941903B394F7CFB21418F42B1837
S113057002C0982C212CA4FE10C0B60180E390E0A8
S11305800E941903A2FE17C0A1FC03C088E790E0F3
S113059002C088E590E0B6010CC08A2D867859F037
S11305A0A1FE02C08BE201C080E2A7FC8DE2B6018D
S11305B090E00E941903891438F4B60180E390E0B6
S11305C00E9419039A94F7CF8A94F301E80DF11D60
S11305D08081B60190E00E9419038110F5CF22209A
S11305E009F442CEB60180E290E00E9419032A94F5
S11305F0F6CFF6018681978102C08FEF9FEF2B968D
S1130600E2E10C94CF03FC010590615070400110AD
S1130610D8F7809590958E0F9F1F0895FC01615027
S1130620704001900110D8F7809590958E0F9F1F10
S113063008950F931F93CF93DF93FB01238121FD33
S113064003C08FEF9FEF2CC022FF16C04681578155
S1130650248135814217530744F4A081B1819D015F
S11306602F5F3F4F318320838C93268137812F5F07
S11306703F4F3783268314C08B01EC01FB010084B8
S1130680F185E02D0995892BE1F6D80116968D9117
S11306909C911797019617969C938E931697CE016B
S11306A0DF91CF911F910F910895FA01AA27283065
S11306B051F1203181F1E8946F936E7F6E5F7F4F2B
S11306C08F4F9F4FAF4FB1E03ED0B4E03CD0670FA7
S11306D0781F891F9A1FA11D680F791F8A1F911DFA
S11306E0A11D6A0F711D811D911DA11D20D009F44A
S11306F068943F912AE0269F11243019305D31938C
S1130700DEF6CF010895462F4770405D4193B3E074
S11307100FD0C9F7F6CF462F4F70405D4A3318F01B
S1130720495D31FD4052419302D0A9F7EACFB4E0CC
S1130730A6959795879577956795BA95C9F7009784
S11307406105710508959B01AC010A2E0694579525
S1130750479537952795BA95C9F7620F731F841F7C
S1130760951FA01D08952F923F924F925F926F9212
S11307707F928F929F92AF92BF92CF92DF92EF922D
S1130780FF920F931F93CF93DF93CDB7DEB7CA1BAE
S1130790DB0B0FB6F894DEBF0FBECDBF09942A88D9
S11307A0398848885F846E847D848C849B84AA8481
S11307B0B984C884DF80EE80FD800C811B81AA810E
S11307C0B981CE0FD11D0FB6F894DEBF0FBECDBFD9
S10B07D0ED010895F894FFCF38
S11307D87B003800030001007B226964223A2575F6
S11307E82C2022666E63223A25752C202270726DA5
S10F07F8223A5B25752C2025755D7D00E0
S9030000FC
