:100000000C943A000C9457000C9457000C94570031
:100010000C9457000C9457000C9457000C94570004
:100020000C9457000C9457000C9457000C945700F4
:100030000C9457000C9457000C9457000C945700E4
:100040000C9457000C9457000C9457000C945700D4
:100050000C9457000C9457000C9457000C945700C4
:100060000C9457000C9457006364696E6F7073753D
:1000700078585B0011241FBECFEFD8E0DEBFCDBFA4
:1000800012E0A0E0B1E0EAECF0E102C005900D92D0
:10009000A637B107D9F722E0A6E7B2E001C01D926A
:1000A000A03EB207E1F70E9459000C9463080C943B
:1000B00000000E9410018FE39CE90197F1F700C056
:1000C000000080E895E20E943C01AFE3BCE9119793
:1000D000F1F700C0000080E091E00E946001BFEFF6
:1000E000E1EEF4E0B150E040F040E1F700C0000084
:1000F00081E291E00E9460010E947301CAE7D2E0B0
:10010000DF93CF9304EB12E01F930F930F2EF8E7CA
:10011000EF2EF2E0FF2EF02DFF92EF920F2EF6E77A
:10012000CF2EF2E0DF2EF02DDF92CF9286E491E029
:100130009F938F938EE792E09F938F930E94670225
:1001400020917A0230917B024091B4025091B50225
:100150006091780270917902809176029091770295
:100160000E94A501B82ED6018C9180937D02F701E3
:1001700080818093B302E0EBF2E0D8018C91808320
:1001800088818183EDB7FEB73C960FB6F894FEBF29
:100190000FBEEDBFB1103CC082E591E00E9460014E
:1001A000E0EBF2E0918180811F929F931F928F93E9
:1001B0008091B3021F928F9380917D021F928F9343
:1001C0008DE691E09F938F9386EB92E09F938F93C0
:1001D0000E9445020E9438018DB79EB70C960FB65B
:1001E000F8949EBF0FBE8DBFC0E00EC0EC2FF0E0B4
:1001F000EA54FD4F80810E942F01AFE3BCE91197C3
:10020000F1F700C00000CF5FCE3280F30E943401CE
:10021000BB2009F464CF81E991E00E9460015FCFC7
:1002200084B1886084B984B1806284B984B1846007
:1002300084B984B18F7E84B985B1846085B98CB569
:1002400080648CBD8CB580618CBD8CB58E7F8CBD7F
:100250008CB58D7F8CBD8CB58E7F8CBD08958EBD89
:100260000DB407FEFDCF089585B1846085B908956A
:1002700085B18B7F85B908959C0140E050E060E432
:1002800072E48FE090E00E94040221503109309323
:10029000C5002093C40088E18093C10086E080936C
:1002A000C20008958091C0008823E4F78091C600C1
:1002B00008959091C00095FFFCCF8093C6000895EB
:1002C000CF93DF93EC0103C021960E9459018881EE
:1002D0008111FACF8DE00E9459018AE00E945901F4
:1002E000DF91CF9108951092DF021092B2020E9426
:1002F0005201883231F481E08093B2021092DF0221
:10030000F6CF893289F49091B202992369F0E09195
:10031000DF02F0E0E258FD4F10828DE00E945901AB
:100320008AE00E94590108959091B2029923F9F24E
:10033000E091DF02E133D8F691E09E0F9093DF0267
:10034000F0E0E258FD4F8083D2CFEF92FF920F93FF
:100350001F93CF93DF93EB017A01890110927C0206
:100360000197039738F08FEA91E00E94600181E0E5
:1003700080937C02C130D10559F484E0E816F10481
:1003800038F08DED91E00E94600181E080937C0265
:10039000C530D105B1F48FEFE816F10441F038F023
:1003A00080E192E00E94600181E080937C020B304A
:1003B000110538F080E392E00E94600181E08093B3
:1003C0007C022797C1F48FEFE816F10441F038F072
:1003D00080E192E00E94600181E080937C020C54F5
:1003E0001F4F0936114038F083E592E00E9460010A
:1003F00081E080937C0280917C02DF91CF911F91FC
:100400000F91FF90EF900895052E97FB1EF4009436
:100410000E941B0257FD07D00E94230207FC03D055
:100420004EF40C941B0250954095309521953F4F0A
:100430004F4F5F4F089590958095709561957F4FD0
:100440008F4F9F4F0895A1E21A2EAA1BBB1BFD01DF
:100450000DC0AA1FBB1FEE1FFF1FA217B307E407A3
:10046000F50720F0A21BB30BE40BF50B661F771FFB
:10047000881F991F1A9469F76095709580959095DB
:100480009B01AC01BD01CF010895AEE0B0E0EBE40B
:10049000F2E00C943A080D891E8986E08C831A8359
:1004A00009838FEF9FE79E838D83AE01475E5F4F89
:1004B0006F89788DCE0101960E948002EF81F885C8
:1004C000E00FF11F10822E96E4E00C945608AEE087
:1004D000B0E0EDE6F2E00C943C0885E08C838B897B
:1004E0009C899A838983AE01495E5F4F6D897E89BD
:1004F000CE0101960E94FD052E96E2E00C9458086C
:10050000ABE0B0E0E6E8F2E00C942C086C017B0173
:100510008A01FC0117821682838181FFCCC1CE0142
:1005200001963C01F6019381F70193FD859193FFBC
:1005300081917F01882309F4BAC1853239F493FD92
:10054000859193FF81917F01853229F4B60190E076
:100550000E947607E7CF912C212C312CFFE1F31577
:10056000D8F08B3279F038F4803279F08332A1F40C
:10057000232D20611DC08D3261F0803369F4232D5D
:10058000216016C0832D8260382EE32DE4603E2E5C
:100590002AC0F32DF8601DC037FC2DC020ED280FB8
:1005A0002A3040F08E32B9F436FC81C1232D20640C
:1005B000322E19C036FE06C08AE0989E200D112406
:1005C000922E11C0EAE02E9E200D1124222EF32D32
:1005D000F0623F2E08C08C3621F4832D8068382EBF
:1005E00002C0883641F4F70193FD859193FF819114
:1005F0007F018111B3CF982F9F7D9554933028F4BC
:100600000C5F1F4F9FE399830DC0833631F0833712
:1006100071F0833509F059C021C0F80180818983C8
:100620000E5F1F4F88248394912C530113C028011F
:10063000F2E04F0E511CF801A080B18036FE03C0DD
:10064000692D70E002C06FEF7FEFC5010E942D079A
:100650004C018201F32DFF773F2E16C0280122E0C6
:10066000420E511CF801A080B18036FE03C0692DF6
:1006700070E002C06FEF7FEFC5010E9422074C01BE
:10068000F32DF0683F2E820133FC1BC0822D90E0D9
:1006900088169906B0F4B60180E290E00E947607D1
:1006A0002A94F4CFF50137FC859137FE81915F01E3
:1006B000B60190E00E94760721102A9421E0821A68
:1006C00091088114910471F7E8C0843611F08936DD
:1006D00041F5F80137FE07C0608171818281938105
:1006E0000C5F1F4F08C060817181072E000C880BC2
:1006F000990B0E5F1F4FF32DFF763F2E97FF09C01A
:1007000090958095709561957F4F8F4F9F4FF068C2
:100710003F2E2AE030E0A3010E94CB07882E8618E6
:1007200045C0853731F4232D2F7EB22E2AE030E0EC
:1007300025C0932D997FB92E8F36C1F018F48835D6
:1007400079F0B5C0803719F0883721F0B0C0E92FB3
:10075000E061BE2EB4FE0DC0FB2DF460BF2E09C0BB
:1007600034FE0AC0292F2660B22E06C028E030E0F1
:1007700005C020E130E002C020E132E0F801B7FE20
:1007800007C060817181828193810C5F1F4F06C019
:100790006081718180E090E00E5F1F4FA3010E9495
:1007A000CB07882E8618FB2DFF773F2E36FE0DC017
:1007B000232D2E7FA22E891458F434FE0BC032FC58
:1007C00009C0832D8E7EA82E05C0B82CA32C03C093
:1007D000B82C01C0B92CA4FE0FC0FE01E80DF11D1C
:1007E0008081803321F49A2D997EA92E09C0A2FE22
:1007F00006C0B394B39404C08A2D867809F0B394EC
:10080000A3FC11C0A0FE06C0B21488F4280C922CE0
:100810009B180EC0B21460F4B60180E290E00E9412
:100820007607B394F7CFB21418F42B1802C0982CA3
:10083000212CA4FE10C0B60180E390E00E94760750
:10084000A2FE17C0A1FC03C088E790E002C088E5C3
:1008500090E0B6010CC08A2D867859F0A1FE02C046
:100860008BE201C080E2A7FC8DE2B60190E00E941D
:100870007607891438F4B60180E390E00E94760789
:100880009A94F7CF8A94F301E80DF11D8081B601A7
:1008900090E00E9476078110F5CF222009F442CE25
:1008A000B60180E290E00E9476072A94F6CFF60126
:1008B0008681978102C08FEF9FEF2B96E2E10C9427
:1008C000480820FD09C0FC0123FD05C022FF02C02D
:1008D0007383628351834083089544FD17C046FDAE
:1008E00017C0AB01BC01DA01FB01AA0FBB1FEE1F51
:1008F000FF1F1094D1F74A0F5B1F6E1F7F1FCB01A4
:10090000BA01660F771F881F991F09C033E001C025
:1009100034E0660F771F881F991F3150D1F7620F9F
:10092000711D811D911D08950F931F93CF93DF9328
:100930008C01C8010E943807EC0197FD08C00E9495
:100940000E07892BB1F7B801CE010E94B207CE0184
:10095000DF91CF911F910F9108958F929F92AF9247
:10096000BF92EF92FF920F931F93CF93DF938C016F
:10097000D62F7A01B22E0E9438079C0133272B32E2
:10098000310531F02D32310561F48B2D8068B82EA0
:10099000D15011F480E068C0C8010E94380797FD6B
:1009A000F9CFCB2DCD7F2B2D207309F58033F9F4B2
:1009B000AA24AA94AD0E09F443C0C8010E943807C6
:1009C00097FD3EC09C012F7D33272835310549F422
:1009D000C264D250A9F1C8010E94380797FF07C02E
:1009E0002FC0B6FE02C0C26001C0C261DA2D812CE8
:1009F000912C540120ED280F283080F0C4FF04C052
:100A0000B8010E94B20719C02A3040F0C6FFF8CFE3
:100A10002F7D3FEE320F363098F727504C2FC5010F
:100A2000B4010E946D044B015C01C260D15059F0C9
:100A3000C8010E94380797FFDDCFC1FD04C0AACFCF
:100A4000812C912C5401C7FF08C0B094A0949094BD
:100A50008094811C911CA11CB11C2C2FB501A401F8
:100A6000C7010E94610481E0DF91CF911F910F9136
:100A7000FF90EF90BF90AF909F908F900895A0E26D
:100A8000B0E0E5E4F5E00C942F085C01962E7A01C5
:100A9000F9018E010F5F1F4F680180E2D8011D929E
:100AA0008A95E9F7D50113968C9080E090E0612C4F
:100AB000712C30E061E070E083FC259183FE219190
:100AC0008F01522E211103C080E090E092C02E359C
:100AD00011F4009751F1432F50E0481759073CF4A7
:100AE0002D3559F12D3219F4772009F103C0772003
:100AF00009F46AC0452D469546954695D601A40F42
:100B0000B11D452D47708B0102C0000F111F4A9582
:100B1000E2F7A8015C91452B4C93651459F05614EB
:100B200010F45394E7CF5A94E5CF31E004C0772412
:100B3000739401C0712C0196BFCF772019F08E817C
:100B400080628E83311103C08824839417C0F6011C
:100B50009E012F5D3F4F8081809581932E173F0727
:100B6000D1F7F2CFE114F10429F0D7018C93F7010A
:100B700031967F019A94812C9920F9F0C5010E9449
:100B8000380797FD18C0FC01FF2723E0F595E7958E
:100B90002A95E1F7EC0DFD1D208130E0AC01477096
:100BA000552702C0359527954A95E2F720FDDACF03
:100BB000B5010E94B207811087CFE114F10411F052
:100BC000D7011C92C80115C0422F469546954695FF
:100BD000D601A40FB11D422F47708B0102C0000F38
:100BE000111F4A95E2F7A8015C91452B4C93622EA8
:100BF000A2CFA096EFE00C944B08A0E0B0E0E3E0B9
:100C0000F6E00C942F086C01EB015A01FC011782ED
:100C10001682512CF601E380FE01E3FC8591E3FE90
:100C20008191182FEF01882309F4EEC090E00E9413
:100C30000E07892B21F0C6010E949404EBCF1532D8
:100C400041F4FE01E3FC1591E3FE1191EF01153231
:100C500081F4C6010E94380797FDD4C0412F50E0AF
:100C60009C01332724173507A9F2B6010E94B20769
:100C7000CBC01A3239F4E3FC1591E3FE1191EF0178
:100C800001E001C000E0F12C20ED210F2A3080F4BA
:100C900002606F2D70E080E090E040E20E946D0401
:100CA000F62EFE01E3FC1591E3FE1191EF01ECCF6E
:100CB00001FF03C0F11003C0A7C0FF24FA94183647
:100CC00019F01C3651F010C0FE01E3FC1591E3FE53
:100CD0001191EF01183641F408600460FE01E3FC55
:100CE0001591E3FE1191EF01112309F48DC0612FDD
:100CF00070E088E690E00E941707892B09F484C011
:100D000000FD07C0F50180809180C50102965C015D
:100D100002C0812C912C1E3651F4F6014681578178
:100D200060E070E0202FC4010E94610473CF13368D
:100D3000A9F401FD02C0FF24F394C6010E94380704
:100D400097FD60C08114910429F0F4018083C401EF
:100D500001964C01FA94F110F0CF50C01B3559F4B4
:100D60009E01A4016F2DC6010E943F05EC01892B55
:100D700009F044C03EC0C6010E94940497FD42C0E1
:100D80001F3661F128F4143639F1193651F128C0B3
:100D9000133771F0153701F123C08114910429F044
:100DA000F4016082C40101964C01FA94FF2071F0B5
:100DB000C6010E9438073C0197FD08C00E940E073B
:100DC000892B59F3B601C3010E94B2078114910423
:100DD000A9F0F401108212C0006203C0006101C0DA
:100DE0000064202FA4016F2DC6010E94AD04811163
:100DF00005C0F6018381807329F406C000FD0ACF87
:100E0000539408CF552019F0852D90E002C08FEF44
:100E10009FEFCDB7DEB7EFE00C944B0891110C9427
:100E20002908803219F089508550C8F70895FC01CF
:100E30000590061621F00020D9F7C00108953197DA
:100E4000CF010895FC010590615070400110D8F762
:100E5000809590958E0F9F1F0895FC016150704002
:100E600001900110D8F7809590958E0F9F1F0895DF
:100E7000CF93DF93EC012B8120FF33C026FF0AC004
:100E80002F7B2B838E819F8101969F838E838A8106
:100E900090E029C022FF0FC0E881F9818081082EEF
:100EA000000C990B009719F420622B831AC031961D
:100EB000F983E8830EC0EA85FB85099597FF09C091
:100EC0002B81019611F080E201C080E1822B8B839F
:100ED00008C02E813F812F5F3F4F3F832E8399278C
:100EE00002C08FEF9FEFDF91CF9108950F931F9373
:100EF000CF93DF93FB01238121FD03C08FEF9FEF91
:100F00002CC022FF16C046815781248135814217AB
:100F1000530744F4A081B1819D012F5F3F4F31837E
:100F200020838C93268137812F5F3F4F3783268321
:100F300014C08B01EC01FB010084F185E02D0995C3
:100F4000892BE1F6D80116968D919C911797019601
:100F500017969C938E931697CE01DF91CF911F9198
:100F60000F910895FB01238120FF12C026FD10C0C0
:100F70008F3F3FEF930761F082832F7D20642383AF
:100F80002681378121503109378326839927089597
:100F90008FEF9FEF0895FA01AA27283051F12031F1
:100FA00081F1E8946F936E7F6E5F7F4F8F4F9F4FFD
:100FB000AF4FB1E03ED0B4E03CD0670F781F891F3F
:100FC0009A1FA11D680F791F8A1F911DA11D6A0F0D
:100FD000711D811D911DA11D20D009F468943F91C0
:100FE0002AE0269F11243019305D3193DEF6CF01BF
:100FF0000895462F4770405D4193B3E00FD0C9F785
:10100000F6CF462F4F70405D4A3318F0495D31FDF1
:101010004052419302D0A9F7EACFB4E0A695979544
:10102000879577956795BA95C9F70097610571051A
:1010300008959B01AC010A2E069457954795379564
:101040002795BA95C9F7620F731F841F951FA01DBE
:1010500008959927882708952F923F924F925F9283
:101060006F927F928F929F92AF92BF92CF92DF92B8
:10107000EF92FF920F931F93CF93DF93CDB7DEB71D
:10108000CA1BDB0B0FB6F894DEBF0FBECDBF0994B1
:101090002A88398848885F846E847D848C849B8408
:1010A000AA84B984C884DF80EE80FD800C811B8116
:1010B000AA81B981CE0FD11D0FB6F894DEBF0FBE45
:0A10C000CDBFED010895F894FFCFB5
:1010CA004C6F73206D6F746F726573207961207431
:1010DA0069656E656E20646972656363696F6E2EF9
:1010EA0000507565646520656A6563757461722070
:1010FA00656C207369677569656E746520636F6DC9
:10110A00616E646F2E0025642C25642C25642C25C1
:10111A006400456C20636F6D616E646F2073657245
:10112A00E120656A6563757461646F2E007B2269CC
:10113A0064223A25752C2022666E63223A25752C84
:10114A00202270726D223A5B25752C2025755D7DF3
:10115A0000496E67726573617220656C20636F6DFA
:10116A00616E646F206465206E7565766F2E00452A
:10117A0072726F723A20496E677265736172206487
:10118A00697265636369F36E206465206D6F746FBD
:10119A0072206578697374656E74652E0045727283
:1011AA006F723A20456C206D6963726F7374657053
:1011BA0070696E6720657374612066756572612057
:1011CA0064652072616E676F2028302D33292E00E6
:1011DA004572726F723A2052616E676F20646520A1
:1011EA0052504D20696E636F72726563746F2E0080
:1011FA004572726F723A2052616E676F2064652081
:10120A007469656D706F20696E636F72726563745D
:10121A006F2E004572726F723A2052616E676F20AC
:10122A00646520E16E67756C6F20696E636F727218
:06123A006563746F2E00D5
:00000001FF
